{
  "contractName": "Election",
  "abi": [
    {
      "inputs": [],
      "stateMutability": "nonpayable",
      "type": "constructor"
    },
    {
      "anonymous": false,
      "inputs": [
        {
          "indexed": false,
          "internalType": "string",
          "name": "publicKey",
          "type": "string"
        },
        {
          "indexed": false,
          "internalType": "string",
          "name": "message",
          "type": "string"
        }
      ],
      "name": "VoteCasted",
      "type": "event"
    },
    {
      "anonymous": false,
      "inputs": [
        {
          "indexed": false,
          "internalType": "string",
          "name": "message",
          "type": "string"
        }
      ],
      "name": "VoteStartedOrFinished",
      "type": "event"
    },
    {
      "anonymous": false,
      "inputs": [
        {
          "indexed": false,
          "internalType": "bytes32",
          "name": "hashedPublicKey",
          "type": "bytes32"
        },
        {
          "indexed": false,
          "internalType": "bool",
          "name": "isRegistered",
          "type": "bool"
        },
        {
          "indexed": false,
          "internalType": "bool",
          "name": "hasVoted",
          "type": "bool"
        }
      ],
      "name": "VoterAdded",
      "type": "event"
    },
    {
      "inputs": [],
      "name": "isVoteFinished",
      "outputs": [
        {
          "internalType": "bool",
          "name": "",
          "type": "bool"
        }
      ],
      "stateMutability": "view",
      "type": "function",
      "constant": true
    },
    {
      "inputs": [],
      "name": "isVoteStarted",
      "outputs": [
        {
          "internalType": "bool",
          "name": "",
          "type": "bool"
        }
      ],
      "stateMutability": "view",
      "type": "function",
      "constant": true
    },
    {
      "inputs": [],
      "name": "startVote",
      "outputs": [],
      "stateMutability": "nonpayable",
      "type": "function"
    },
    {
      "inputs": [],
      "name": "endVote",
      "outputs": [],
      "stateMutability": "nonpayable",
      "type": "function"
    },
    {
      "inputs": [
        {
          "internalType": "string",
          "name": "_publicKey",
          "type": "string"
        }
      ],
      "name": "addVoter",
      "outputs": [],
      "stateMutability": "nonpayable",
      "type": "function"
    },
    {
      "inputs": [
        {
          "internalType": "string",
          "name": "_publicKey",
          "type": "string"
        },
        {
          "internalType": "string",
          "name": "_encryptedVote",
          "type": "string"
        },
        {
          "internalType": "string",
          "name": "_signature",
          "type": "string"
        }
      ],
      "name": "addVote",
      "outputs": [],
      "stateMutability": "nonpayable",
      "type": "function"
    },
    {
      "inputs": [],
      "name": "getAllVotes",
      "outputs": [
        {
          "components": [
            {
              "internalType": "string",
              "name": "publicKey",
              "type": "string"
            },
            {
              "internalType": "string",
              "name": "encryptedVote",
              "type": "string"
            },
            {
              "internalType": "string",
              "name": "signature",
              "type": "string"
            }
          ],
          "internalType": "struct Election.Vote[]",
          "name": "",
          "type": "tuple[]"
        }
      ],
      "stateMutability": "view",
      "type": "function",
      "constant": true
    }
  ],
  "bytecode": "0x6080604052600080557317987d50dd4439ed4cf3975ef6752d1c7a076ca3600360026101000a81548173ffffffffffffffffffffffffffffffffffffffff021916908373ffffffffffffffffffffffffffffffffffffffff16021790555034801561006957600080fd5b506000600360016101000a81548160ff0219169083151502179055506000600360006101000a81548160ff02191690831515021790555061181d806100af6000396000f3fe608060405234801561001057600080fd5b506004361061007d5760003560e01c8063aca848921161005b578063aca84892146100c8578063b8ee0296146100e4578063b922394614610100578063ba7faf491461010a5761007d565b80634c0a6af0146100825780636826294c1461008c578063851b6ef2146100aa575b600080fd5b61008a610128565b005b61009461020a565b6040516100a19190610ae5565b60405180910390f35b6100b261021d565b6040516100bf9190610cb0565b60405180910390f35b6100e260048036038101906100dd9190610e1b565b6104f4565b005b6100fe60048036038101906100f99190610e64565b61072f565b005b610108610933565b005b610112610a15565b60405161011f9190610ae5565b60405180910390f35b600360029054906101000a900473ffffffffffffffffffffffffffffffffffffffff1673ffffffffffffffffffffffffffffffffffffffff163373ffffffffffffffffffffffffffffffffffffffff16146101b8576040517f08c379a00000000000000000000000000000000000000000000000000000000081526004016101af90610f68565b60405180910390fd5b6001600360006101000a81548160ff0219169083151502179055507f46dc84b3735f5bde3eda04ed0139966e2cc450589305d827dae93f366be8dc5960405161020090610fd4565b60405180910390a1565b600360019054906101000a900460ff1681565b606060011515600360019054906101000a900460ff16151514610275576040517f08c379a000000000000000000000000000000000000000000000000000000000815260040161026c90611040565b60405180910390fd5b6000805467ffffffffffffffff81111561029257610291610cf0565b5b6040519080825280602002602001820160405280156102cb57816020015b6102b8610a8b565b8152602001906001900390816102b05790505b50905060005b6000548110156104ec57600160006001836102ec9190611099565b8152602001908152602001600020604051806060016040529081600082018054610315906110fc565b80601f0160208091040260200160405190810160405280929190818152602001828054610341906110fc565b801561038e5780601f106103635761010080835404028352916020019161038e565b820191906000526020600020905b81548152906001019060200180831161037157829003601f168201915b505050505081526020016001820180546103a7906110fc565b80601f01602080910402602001604051908101604052809291908181526020018280546103d3906110fc565b80156104205780601f106103f557610100808354040283529160200191610420565b820191906000526020600020905b81548152906001019060200180831161040357829003601f168201915b50505050508152602001600282018054610439906110fc565b80601f0160208091040260200160405190810160405280929190818152602001828054610465906110fc565b80156104b25780601f10610487576101008083540402835291602001916104b2565b820191906000526020600020905b81548152906001019060200180831161049557829003601f168201915b5050505050815250508282815181106104ce576104cd61112d565b5b602002602001018190525080806104e49061115c565b9150506102d1565b508091505090565b600360029054906101000a900473ffffffffffffffffffffffffffffffffffffffff1673ffffffffffffffffffffffffffffffffffffffff163373ffffffffffffffffffffffffffffffffffffffff1614610584576040517f08c379a000000000000000000000000000000000000000000000000000000000815260040161057b90610f68565b60405180910390fd5b60001515600360019054906101000a900460ff1615151480156105ba575060001515600360009054906101000a900460ff161515145b6105f9576040517f08c379a00000000000000000000000000000000000000000000000000000000081526004016105f090611216565b60405180910390fd5b60008160405160200161060c9190611272565b604051602081830303815290604052805190602001209050600061062f82610a28565b905060001515816000015115151461067c576040517f08c379a0000000000000000000000000000000000000000000000000000000008152600401610673906112d5565b60405180910390fd5b6040518060400160405280600115158152602001600015158152506002600084815260200190815260200160002060008201518160000160006101000a81548160ff02191690831515021790555060208201518160000160016101000a81548160ff0219169083151502179055509050507fd51e23eef9e809d9a747dea3a57de48529a943997b52bcea5e136b5a4a80a41282600160006040516107229392919061130e565b60405180910390a1505050565b60001515600360019054906101000a900460ff161515148015610765575060011515600360009054906101000a900460ff161515145b6107a4576040517f08c379a000000000000000000000000000000000000000000000000000000000815260040161079b90611391565b60405180910390fd5b6000836040516020016107b79190611272565b60405160208183030381529060405280519060200120905060006107da82610a28565b905060001515816020015115151480156107fc57506001151581600001511515145b61083b576040517f08c379a0000000000000000000000000000000000000000000000000000000008152600401610832906113fd565b60405180910390fd5b60008081548092919061084d9061115c565b91905055506040518060600160405280868152602001858152602001848152506001600080548152602001908152602001600020600082015181600001908161089691906115c9565b5060208201518160010190816108ac91906115c9565b5060408201518160020190816108c291906115c9565b5090505060016002600084815260200190815260200160002060000160016101000a81548160ff0219169083151502179055507f791f7d5f0b0d6e798f239ccca607156ff12f293d6709379301dc1a27e5206181856040516109249190611746565b60405180910390a15050505050565b600360029054906101000a900473ffffffffffffffffffffffffffffffffffffffff1673ffffffffffffffffffffffffffffffffffffffff163373ffffffffffffffffffffffffffffffffffffffff16146109c3576040517f08c379a00000000000000000000000000000000000000000000000000000000081526004016109ba90610f68565b60405180910390fd5b6001600360016101000a81548160ff0219169083151502179055507f46dc84b3735f5bde3eda04ed0139966e2cc450589305d827dae93f366be8dc59604051610a0b906117c7565b60405180910390a1565b600360009054906101000a900460ff1681565b610a30610aac565b600260008381526020019081526020016000206040518060400160405290816000820160009054906101000a900460ff161515151581526020016000820160019054906101000a900460ff1615151515815250509050919050565b60405180606001604052806060815260200160608152602001606081525090565b60405180604001604052806000151581526020016000151581525090565b60008115159050919050565b610adf81610aca565b82525050565b6000602082019050610afa6000830184610ad6565b92915050565b600081519050919050565b600082825260208201905092915050565b6000819050602082019050919050565b600081519050919050565b600082825260208201905092915050565b60005b83811015610b66578082015181840152602081019050610b4b565b60008484015250505050565b6000601f19601f8301169050919050565b6000610b8e82610b2c565b610b988185610b37565b9350610ba8818560208601610b48565b610bb181610b72565b840191505092915050565b60006060830160008301518482036000860152610bd98282610b83565b91505060208301518482036020860152610bf38282610b83565b91505060408301518482036040860152610c0d8282610b83565b9150508091505092915050565b6000610c268383610bbc565b905092915050565b6000602082019050919050565b6000610c4682610b00565b610c508185610b0b565b935083602082028501610c6285610b1c565b8060005b85811015610c9e5784840389528151610c7f8582610c1a565b9450610c8a83610c2e565b925060208a01995050600181019050610c66565b50829750879550505050505092915050565b60006020820190508181036000830152610cca8184610c3b565b905092915050565b6000604051905090565b600080fd5b600080fd5b600080fd5b600080fd5b7f4e487b7100000000000000000000000000000000000000000000000000000000600052604160045260246000fd5b610d2882610b72565b810181811067ffffffffffffffff82111715610d4757610d46610cf0565b5b80604052505050565b6000610d5a610cd2565b9050610d668282610d1f565b919050565b600067ffffffffffffffff821115610d8657610d85610cf0565b5b610d8f82610b72565b9050602081019050919050565b82818337600083830152505050565b6000610dbe610db984610d6b565b610d50565b905082815260208101848484011115610dda57610dd9610ceb565b5b610de5848285610d9c565b509392505050565b600082601f830112610e0257610e01610ce6565b5b8135610e12848260208601610dab565b91505092915050565b600060208284031215610e3157610e30610cdc565b5b600082013567ffffffffffffffff811115610e4f57610e4e610ce1565b5b610e5b84828501610ded565b91505092915050565b600080600060608486031215610e7d57610e7c610cdc565b5b600084013567ffffffffffffffff811115610e9b57610e9a610ce1565b5b610ea786828701610ded565b935050602084013567ffffffffffffffff811115610ec857610ec7610ce1565b5b610ed486828701610ded565b925050604084013567ffffffffffffffff811115610ef557610ef4610ce1565b5b610f0186828701610ded565b9150509250925092565b600082825260208201905092915050565b7f556e617574686f72697a65642063616c6c657200000000000000000000000000600082015250565b6000610f52601383610f0b565b9150610f5d82610f1c565b602082019050919050565b60006020820190508181036000830152610f8181610f45565b9050919050565b7f566f746520686173207374617274656400000000000000000000000000000000600082015250565b6000610fbe601083610f0b565b9150610fc982610f88565b602082019050919050565b60006020820190508181036000830152610fed81610fb1565b9050919050565b7f566f74696e672073657373696f6e206e6f742066696e69736865642079657400600082015250565b600061102a601f83610f0b565b915061103582610ff4565b602082019050919050565b600060208201905081810360008301526110598161101d565b9050919050565b6000819050919050565b7f4e487b7100000000000000000000000000000000000000000000000000000000600052601160045260246000fd5b60006110a482611060565b91506110af83611060565b92508282019050808211156110c7576110c661106a565b5b92915050565b7f4e487b7100000000000000000000000000000000000000000000000000000000600052602260045260246000fd5b6000600282049050600182168061111457607f821691505b602082108103611127576111266110cd565b5b50919050565b7f4e487b7100000000000000000000000000000000000000000000000000000000600052603260045260246000fd5b600061116782611060565b91507fffffffffffffffffffffffffffffffffffffffffffffffffffffffffffffffff82036111995761119861106a565b5b600182019050919050565b7f566f74696e672073657373696f6e20686173207374617274656420616c72656160008201527f6479000000000000000000000000000000000000000000000000000000000000602082015250565b6000611200602283610f0b565b915061120b826111a4565b604082019050919050565b6000602082019050818103600083015261122f816111f3565b9050919050565b600081905092915050565b600061124c82610b2c565b6112568185611236565b9350611266818560208601610b48565b80840191505092915050565b600061127e8284611241565b915081905092915050565b7f566f74657220616c726561647920726567697374657265640000000000000000600082015250565b60006112bf601883610f0b565b91506112ca82611289565b602082019050919050565b600060208201905081810360008301526112ee816112b2565b9050919050565b6000819050919050565b611308816112f5565b82525050565b600060608201905061132360008301866112ff565b6113306020830185610ad6565b61133d6040830184610ad6565b949350505050565b7f566f74696e672073657373696f6e206e6f7420696e2070726f67726573730000600082015250565b600061137b601e83610f0b565b915061138682611345565b602082019050919050565b600060208201905081810360008301526113aa8161136e565b9050919050565b7f556e617574686f72697a656420766f7465720000000000000000000000000000600082015250565b60006113e7601283610f0b565b91506113f2826113b1565b602082019050919050565b60006020820190508181036000830152611416816113da565b9050919050565b60008190508160005260206000209050919050565b60006020601f8301049050919050565b600082821b905092915050565b60006008830261147f7fffffffffffffffffffffffffffffffffffffffffffffffffffffffffffffffff82611442565b6114898683611442565b95508019841693508086168417925050509392505050565b6000819050919050565b60006114c66114c16114bc84611060565b6114a1565b611060565b9050919050565b6000819050919050565b6114e0836114ab565b6114f46114ec826114cd565b84845461144f565b825550505050565b600090565b6115096114fc565b6115148184846114d7565b505050565b5b818110156115385761152d600082611501565b60018101905061151a565b5050565b601f82111561157d5761154e8161141d565b61155784611432565b81016020851015611566578190505b61157a61157285611432565b830182611519565b50505b505050565b600082821c905092915050565b60006115a060001984600802611582565b1980831691505092915050565b60006115b9838361158f565b9150826002028217905092915050565b6115d282610b2c565b67ffffffffffffffff8111156115eb576115ea610cf0565b5b6115f582546110fc565b61160082828561153c565b600060209050601f8311600181146116335760008415611621578287015190505b61162b85826115ad565b865550611693565b601f1984166116418661141d565b60005b8281101561166957848901518255600182019150602085019450602081019050611644565b868310156116865784890151611682601f89168261158f565b8355505b6001600288020188555050505b505050505050565b60006116a682610b2c565b6116b08185610f0b565b93506116c0818560208601610b48565b6116c981610b72565b840191505092915050565b7f566f746520686173206265656e207265676973746572656420666f722074686560008201527f20766f7465720000000000000000000000000000000000000000000000000000602082015250565b6000611730602683610f0b565b915061173b826116d4565b604082019050919050565b60006040820190508181036000830152611760818461169b565b9050818103602083015261177381611723565b905092915050565b7f566f7465206861732066696e6973686564000000000000000000000000000000600082015250565b60006117b1601183610f0b565b91506117bc8261177b565b602082019050919050565b600060208201905081810360008301526117e0816117a4565b905091905056fea2646970667358221220d1abcc16239f5e52518f9435938d5caf4a548630fd1a4a7c14de5c3a65aba5f664736f6c63430008130033",
  "immutableReferences": {},
  "source": "// SPDX-License-Identifier: UNLICENSED\npragma solidity 0.8.19;\n\ncontract Election {\n    // The vote struct that represents the valuable payload of a final vote\n    struct Vote {\n        string publicKey;\n        string encryptedVote;\n        string signature;\n    }\n\n    // Voter struct used to keep status of each one of them;\n    struct Voter {\n        bool isRegistered;\n        bool hasVoted;\n    }\n\n    // Here are stored all the votes\n    uint private voteCount = 0;\n    mapping(uint => Vote) private votes;\n\n    // Here are stored all the registered voters.\n    mapping(bytes32 => Voter) private voters;\n\n    // Status of the current voting session\n    bool public isVoteStarted;\n    bool public isVoteFinished;\n\n    // The admin address: the first address from Ganache workspace\n    // To test modifiers, change this to anything you want (ex: 0xcafebabef00ddeadbeefcafebabef00ddeadbeef)\n    address private authorizedAddress = 0x17987d50dD4439Ed4Cf3975Ef6752D1C7a076cA3;\n\n    // Modifiers. The names suggest what they do\n    modifier onlyAuthorized() {\n        require(msg.sender == authorizedAddress, \"Unauthorized caller\");\n        _;\n    }\n\n    modifier onlyAfterVoteFinished() {\n        require(isVoteFinished == true, \"Voting session not finished yet\");\n        _;\n    }\n\n    modifier onlyAfterVoteStartedAndNotFinished() {\n        require(isVoteFinished == false && isVoteStarted == true, \"Voting session not in progress\");\n        _;\n    }\n\n    modifier onlyBeforeVoteStarted() {\n        require(isVoteFinished == false && isVoteStarted == false, \"Voting session has started already\");\n        _;\n    }\n\n    // Creating the voting session\n    constructor() {\n        isVoteFinished = false;\n        isVoteStarted = false;\n    }\n\n    // The events are used for logging\n    event VoteStartedOrFinished (\n        string message\n    );\n\n    event VoteCasted (\n        string publicKey,\n        string message\n    );\n\n    event VoterAdded (\n        bytes32 hashedPublicKey,\n        bool isRegistered,\n        bool hasVoted\n    );\n\n    // One-way modifying function in order to start the voting session \n    function startVote() public onlyAuthorized {\n        isVoteStarted = true;\n        emit VoteStartedOrFinished(\"Vote has started\");\n    }\n\n    // One-way modifying function in order to end the voting session \n    function endVote() public onlyAuthorized {\n        isVoteFinished = true;\n        emit VoteStartedOrFinished(\"Vote has finished\");\n    }\n\n    // Add a voter to the voter list by hashing his/her public key.\n    function addVoter(string memory _publicKey) public onlyAuthorized onlyBeforeVoteStarted {\n        bytes32 hashedPublicKey = keccak256(abi.encodePacked(_publicKey));\n        Voter memory currentVoter = getVoter(hashedPublicKey);\n        require(currentVoter.isRegistered == false, \"Voter already registered\");\n\n        voters[hashedPublicKey] = Voter(true, false);\n        emit VoterAdded(hashedPublicKey, true, false);\n    }\n    //lala\n\n    // Get details of a voter, be him/her registered or not\n    function getVoter(bytes32 hashedPublicKey) private view returns (Voter memory){\n        return voters[hashedPublicKey];\n    }\n\n    // Add a vote to the votes mapping\n    function addVote(\n        string memory _publicKey, \n        string memory _encryptedVote, \n        string memory _signature) public onlyAfterVoteStartedAndNotFinished \n    {\n        bytes32 hashedPublicKey = keccak256(abi.encodePacked(_publicKey));\n        Voter memory currentVoter = getVoter(hashedPublicKey);\n        require(currentVoter.hasVoted == false && currentVoter.isRegistered == true, \"Unauthorized voter\");\n\n        voteCount++;\n        votes[voteCount] = Vote(_publicKey, _encryptedVote, _signature);\n        voters[hashedPublicKey].hasVoted = true;\n        emit VoteCasted(_publicKey, \"Vote has been registered for the voter\");\n    }\n\n    // Return all the votes casted in this session\n    function getAllVotes() public view onlyAfterVoteFinished returns (Vote[] memory) {\n        Vote[] memory returnedVotes = new Vote[](voteCount);\n        for (uint i = 0; i < voteCount; i++) {\n            returnedVotes[i] = votes[i+1];\n        }\n        return returnedVotes;\n    }\n}",
  "sourcePath": "/Users/gpoalelungi/facultate/licenta/blockchain_eVoting/smart-contract/src/contracts/Election.sol",
  "compiler": {
    "name": "solc",
    "version": "0.8.19+commit.7dd6d404.Emscripten.clang"
  },
  "schemaVersion": "3.4.14",
  "updatedAt": "2023-07-03T14:39:02.489Z",
  "networkType": "ethereum",
  "devdoc": {
    "kind": "dev",
    "methods": {},
    "version": 1
  },
  "userdoc": {
    "kind": "user",
    "methods": {},
    "version": 1
  }
}