{
  "contractName": "Election",
  "abi": [
    {
      "inputs": [],
      "stateMutability": "nonpayable",
      "type": "constructor"
    },
    {
      "anonymous": false,
      "inputs": [
        {
          "indexed": false,
          "internalType": "string",
          "name": "publicKey",
          "type": "string"
        },
        {
          "indexed": false,
          "internalType": "string",
          "name": "encryptedVote",
          "type": "string"
        },
        {
          "indexed": false,
          "internalType": "string",
          "name": "signature",
          "type": "string"
        }
      ],
      "name": "VoteCasted",
      "type": "event"
    },
    {
      "anonymous": false,
      "inputs": [
        {
          "indexed": false,
          "internalType": "string",
          "name": "message",
          "type": "string"
        }
      ],
      "name": "VoteStartedOrFinished",
      "type": "event"
    },
    {
      "anonymous": false,
      "inputs": [
        {
          "indexed": false,
          "internalType": "bytes32",
          "name": "hashedPublicKey",
          "type": "bytes32"
        },
        {
          "indexed": false,
          "internalType": "bool",
          "name": "isRegistered",
          "type": "bool"
        },
        {
          "indexed": false,
          "internalType": "bool",
          "name": "hasVoted",
          "type": "bool"
        }
      ],
      "name": "VoterAdded",
      "type": "event"
    },
    {
      "inputs": [],
      "name": "isVoteFinished",
      "outputs": [
        {
          "internalType": "bool",
          "name": "",
          "type": "bool"
        }
      ],
      "stateMutability": "view",
      "type": "function",
      "constant": true
    },
    {
      "inputs": [],
      "name": "isVoteStarted",
      "outputs": [
        {
          "internalType": "bool",
          "name": "",
          "type": "bool"
        }
      ],
      "stateMutability": "view",
      "type": "function",
      "constant": true
    },
    {
      "inputs": [],
      "name": "startVote",
      "outputs": [],
      "stateMutability": "nonpayable",
      "type": "function"
    },
    {
      "inputs": [],
      "name": "endVote",
      "outputs": [],
      "stateMutability": "nonpayable",
      "type": "function"
    },
    {
      "inputs": [
        {
          "internalType": "string",
          "name": "_publicKey",
          "type": "string"
        }
      ],
      "name": "addVoter",
      "outputs": [],
      "stateMutability": "nonpayable",
      "type": "function"
    },
    {
      "inputs": [
        {
          "internalType": "string",
          "name": "_publicKey",
          "type": "string"
        },
        {
          "internalType": "string",
          "name": "_encryptedVote",
          "type": "string"
        },
        {
          "internalType": "string",
          "name": "_signature",
          "type": "string"
        }
      ],
      "name": "addVote",
      "outputs": [],
      "stateMutability": "nonpayable",
      "type": "function"
    },
    {
      "inputs": [],
      "name": "getAllVotes",
      "outputs": [
        {
          "components": [
            {
              "internalType": "string",
              "name": "publicKey",
              "type": "string"
            },
            {
              "internalType": "string",
              "name": "encryptedVote",
              "type": "string"
            },
            {
              "internalType": "string",
              "name": "signature",
              "type": "string"
            }
          ],
          "internalType": "struct Election.Vote[]",
          "name": "",
          "type": "tuple[]"
        }
      ],
      "stateMutability": "view",
      "type": "function",
      "constant": true
    }
  ],
  "bytecode": "0x6080604052600080557317987d50dd4439ed4cf3975ef6752d1c7a076ca3600360026101000a81548173ffffffffffffffffffffffffffffffffffffffff021916908373ffffffffffffffffffffffffffffffffffffffff16021790555034801561006957600080fd5b506000600360016101000a81548160ff0219169083151502179055506000600360006101000a81548160ff0219169083151502179055506117c6806100af6000396000f3fe608060405234801561001057600080fd5b506004361061007d5760003560e01c8063aca848921161005b578063aca84892146100c8578063b8ee0296146100e4578063b922394614610100578063ba7faf491461010a5761007d565b80634c0a6af0146100825780636826294c1461008c578063851b6ef2146100aa575b600080fd5b61008a610128565b005b61009461020a565b6040516100a19190610ae9565b60405180910390f35b6100b261021d565b6040516100bf9190610cb4565b60405180910390f35b6100e260048036038101906100dd9190610e1f565b6104f4565b005b6100fe60048036038101906100f99190610e68565b61072f565b005b610108610937565b005b610112610a19565b60405161011f9190610ae9565b60405180910390f35b600360029054906101000a900473ffffffffffffffffffffffffffffffffffffffff1673ffffffffffffffffffffffffffffffffffffffff163373ffffffffffffffffffffffffffffffffffffffff16146101b8576040517f08c379a00000000000000000000000000000000000000000000000000000000081526004016101af90610f6c565b60405180910390fd5b6001600360006101000a81548160ff0219169083151502179055507f46dc84b3735f5bde3eda04ed0139966e2cc450589305d827dae93f366be8dc5960405161020090610fd8565b60405180910390a1565b600360019054906101000a900460ff1681565b606060011515600360019054906101000a900460ff16151514610275576040517f08c379a000000000000000000000000000000000000000000000000000000000815260040161026c90611044565b60405180910390fd5b6000805467ffffffffffffffff81111561029257610291610cf4565b5b6040519080825280602002602001820160405280156102cb57816020015b6102b8610a8f565b8152602001906001900390816102b05790505b50905060005b6000548110156104ec57600160006001836102ec919061109d565b815260200190815260200160002060405180606001604052908160008201805461031590611100565b80601f016020809104026020016040519081016040528092919081815260200182805461034190611100565b801561038e5780601f106103635761010080835404028352916020019161038e565b820191906000526020600020905b81548152906001019060200180831161037157829003601f168201915b505050505081526020016001820180546103a790611100565b80601f01602080910402602001604051908101604052809291908181526020018280546103d390611100565b80156104205780601f106103f557610100808354040283529160200191610420565b820191906000526020600020905b81548152906001019060200180831161040357829003601f168201915b5050505050815260200160028201805461043990611100565b80601f016020809104026020016040519081016040528092919081815260200182805461046590611100565b80156104b25780601f10610487576101008083540402835291602001916104b2565b820191906000526020600020905b81548152906001019060200180831161049557829003601f168201915b5050505050815250508282815181106104ce576104cd611131565b5b602002602001018190525080806104e490611160565b9150506102d1565b508091505090565b600360029054906101000a900473ffffffffffffffffffffffffffffffffffffffff1673ffffffffffffffffffffffffffffffffffffffff163373ffffffffffffffffffffffffffffffffffffffff1614610584576040517f08c379a000000000000000000000000000000000000000000000000000000000815260040161057b90610f6c565b60405180910390fd5b60001515600360019054906101000a900460ff1615151480156105ba575060001515600360009054906101000a900460ff161515145b6105f9576040517f08c379a00000000000000000000000000000000000000000000000000000000081526004016105f09061121a565b60405180910390fd5b60008160405160200161060c9190611276565b604051602081830303815290604052805190602001209050600061062f82610a2c565b905060001515816000015115151461067c576040517f08c379a0000000000000000000000000000000000000000000000000000000008152600401610673906112d9565b60405180910390fd5b6040518060400160405280600115158152602001600015158152506002600084815260200190815260200160002060008201518160000160006101000a81548160ff02191690831515021790555060208201518160000160016101000a81548160ff0219169083151502179055509050507fd51e23eef9e809d9a747dea3a57de48529a943997b52bcea5e136b5a4a80a412826001600060405161072293929190611312565b60405180910390a1505050565b60001515600360019054906101000a900460ff161515148015610765575060011515600360009054906101000a900460ff161515145b6107a4576040517f08c379a000000000000000000000000000000000000000000000000000000000815260040161079b90611395565b60405180910390fd5b6000836040516020016107b79190611276565b60405160208183030381529060405280519060200120905060006107da82610a2c565b905060001515816020015115151480156107fc57506001151581600001511515145b61083b576040517f08c379a000000000000000000000000000000000000000000000000000000000815260040161083290611401565b60405180910390fd5b60008081548092919061084d90611160565b91905055506040518060600160405280868152602001858152602001848152506001600080548152602001908152602001600020600082015181600001908161089691906115cd565b5060208201518160010190816108ac91906115cd565b5060408201518160020190816108c291906115cd565b5090505060016002600084815260200190815260200160002060000160016101000a81548160ff0219169083151502179055507f55d6abdae2902a81f7b08dea88ada88d6ce858ae8ce1754c62b7dd2d8332d722858585604051610928939291906116d8565b60405180910390a15050505050565b600360029054906101000a900473ffffffffffffffffffffffffffffffffffffffff1673ffffffffffffffffffffffffffffffffffffffff163373ffffffffffffffffffffffffffffffffffffffff16146109c7576040517f08c379a00000000000000000000000000000000000000000000000000000000081526004016109be90610f6c565b60405180910390fd5b6001600360016101000a81548160ff0219169083151502179055507f46dc84b3735f5bde3eda04ed0139966e2cc450589305d827dae93f366be8dc59604051610a0f90611770565b60405180910390a1565b600360009054906101000a900460ff1681565b610a34610ab0565b600260008381526020019081526020016000206040518060400160405290816000820160009054906101000a900460ff161515151581526020016000820160019054906101000a900460ff1615151515815250509050919050565b60405180606001604052806060815260200160608152602001606081525090565b60405180604001604052806000151581526020016000151581525090565b60008115159050919050565b610ae381610ace565b82525050565b6000602082019050610afe6000830184610ada565b92915050565b600081519050919050565b600082825260208201905092915050565b6000819050602082019050919050565b600081519050919050565b600082825260208201905092915050565b60005b83811015610b6a578082015181840152602081019050610b4f565b60008484015250505050565b6000601f19601f8301169050919050565b6000610b9282610b30565b610b9c8185610b3b565b9350610bac818560208601610b4c565b610bb581610b76565b840191505092915050565b60006060830160008301518482036000860152610bdd8282610b87565b91505060208301518482036020860152610bf78282610b87565b91505060408301518482036040860152610c118282610b87565b9150508091505092915050565b6000610c2a8383610bc0565b905092915050565b6000602082019050919050565b6000610c4a82610b04565b610c548185610b0f565b935083602082028501610c6685610b20565b8060005b85811015610ca25784840389528151610c838582610c1e565b9450610c8e83610c32565b925060208a01995050600181019050610c6a565b50829750879550505050505092915050565b60006020820190508181036000830152610cce8184610c3f565b905092915050565b6000604051905090565b600080fd5b600080fd5b600080fd5b600080fd5b7f4e487b7100000000000000000000000000000000000000000000000000000000600052604160045260246000fd5b610d2c82610b76565b810181811067ffffffffffffffff82111715610d4b57610d4a610cf4565b5b80604052505050565b6000610d5e610cd6565b9050610d6a8282610d23565b919050565b600067ffffffffffffffff821115610d8a57610d89610cf4565b5b610d9382610b76565b9050602081019050919050565b82818337600083830152505050565b6000610dc2610dbd84610d6f565b610d54565b905082815260208101848484011115610dde57610ddd610cef565b5b610de9848285610da0565b509392505050565b600082601f830112610e0657610e05610cea565b5b8135610e16848260208601610daf565b91505092915050565b600060208284031215610e3557610e34610ce0565b5b600082013567ffffffffffffffff811115610e5357610e52610ce5565b5b610e5f84828501610df1565b91505092915050565b600080600060608486031215610e8157610e80610ce0565b5b600084013567ffffffffffffffff811115610e9f57610e9e610ce5565b5b610eab86828701610df1565b935050602084013567ffffffffffffffff811115610ecc57610ecb610ce5565b5b610ed886828701610df1565b925050604084013567ffffffffffffffff811115610ef957610ef8610ce5565b5b610f0586828701610df1565b9150509250925092565b600082825260208201905092915050565b7f556e617574686f72697a65642063616c6c657200000000000000000000000000600082015250565b6000610f56601383610f0f565b9150610f6182610f20565b602082019050919050565b60006020820190508181036000830152610f8581610f49565b9050919050565b7f566f746520686173207374617274656400000000000000000000000000000000600082015250565b6000610fc2601083610f0f565b9150610fcd82610f8c565b602082019050919050565b60006020820190508181036000830152610ff181610fb5565b9050919050565b7f566f74696e672073657373696f6e206e6f742066696e69736865642079657400600082015250565b600061102e601f83610f0f565b915061103982610ff8565b602082019050919050565b6000602082019050818103600083015261105d81611021565b9050919050565b6000819050919050565b7f4e487b7100000000000000000000000000000000000000000000000000000000600052601160045260246000fd5b60006110a882611064565b91506110b383611064565b92508282019050808211156110cb576110ca61106e565b5b92915050565b7f4e487b7100000000000000000000000000000000000000000000000000000000600052602260045260246000fd5b6000600282049050600182168061111857607f821691505b60208210810361112b5761112a6110d1565b5b50919050565b7f4e487b7100000000000000000000000000000000000000000000000000000000600052603260045260246000fd5b600061116b82611064565b91507fffffffffffffffffffffffffffffffffffffffffffffffffffffffffffffffff820361119d5761119c61106e565b5b600182019050919050565b7f566f74696e672073657373696f6e20686173207374617274656420616c72656160008201527f6479000000000000000000000000000000000000000000000000000000000000602082015250565b6000611204602283610f0f565b915061120f826111a8565b604082019050919050565b60006020820190508181036000830152611233816111f7565b9050919050565b600081905092915050565b600061125082610b30565b61125a818561123a565b935061126a818560208601610b4c565b80840191505092915050565b60006112828284611245565b915081905092915050565b7f566f74657220616c726561647920726567697374657265640000000000000000600082015250565b60006112c3601883610f0f565b91506112ce8261128d565b602082019050919050565b600060208201905081810360008301526112f2816112b6565b9050919050565b6000819050919050565b61130c816112f9565b82525050565b60006060820190506113276000830186611303565b6113346020830185610ada565b6113416040830184610ada565b949350505050565b7f566f74696e672073657373696f6e206e6f7420696e2070726f67726573730000600082015250565b600061137f601e83610f0f565b915061138a82611349565b602082019050919050565b600060208201905081810360008301526113ae81611372565b9050919050565b7f556e617574686f72697a656420766f7465720000000000000000000000000000600082015250565b60006113eb601283610f0f565b91506113f6826113b5565b602082019050919050565b6000602082019050818103600083015261141a816113de565b9050919050565b60008190508160005260206000209050919050565b60006020601f8301049050919050565b600082821b905092915050565b6000600883026114837fffffffffffffffffffffffffffffffffffffffffffffffffffffffffffffffff82611446565b61148d8683611446565b95508019841693508086168417925050509392505050565b6000819050919050565b60006114ca6114c56114c084611064565b6114a5565b611064565b9050919050565b6000819050919050565b6114e4836114af565b6114f86114f0826114d1565b848454611453565b825550505050565b600090565b61150d611500565b6115188184846114db565b505050565b5b8181101561153c57611531600082611505565b60018101905061151e565b5050565b601f8211156115815761155281611421565b61155b84611436565b8101602085101561156a578190505b61157e61157685611436565b83018261151d565b50505b505050565b600082821c905092915050565b60006115a460001984600802611586565b1980831691505092915050565b60006115bd8383611593565b9150826002028217905092915050565b6115d682610b30565b67ffffffffffffffff8111156115ef576115ee610cf4565b5b6115f98254611100565b611604828285611540565b600060209050601f8311600181146116375760008415611625578287015190505b61162f85826115b1565b865550611697565b601f19841661164586611421565b60005b8281101561166d57848901518255600182019150602085019450602081019050611648565b8683101561168a5784890151611686601f891682611593565b8355505b6001600288020188555050505b505050505050565b60006116aa82610b30565b6116b48185610f0f565b93506116c4818560208601610b4c565b6116cd81610b76565b840191505092915050565b600060608201905081810360008301526116f2818661169f565b90508181036020830152611706818561169f565b9050818103604083015261171a818461169f565b9050949350505050565b7f566f7465206861732066696e6973686564000000000000000000000000000000600082015250565b600061175a601183610f0f565b915061176582611724565b602082019050919050565b600060208201905081810360008301526117898161174d565b905091905056fea264697066735822122095be2458881673f04cdaa6e5e923bab302765e14dc3ab2f477ccd85f02266e2364736f6c63430008130033",
  "immutableReferences": {},
  "source": "// SPDX-License-Identifier: UNLICENSED\npragma solidity >=0.5.0;\n\ncontract Election {\n    // The vote struct that represents the valuable payload of a final vote\n    struct Vote {\n        string publicKey;\n        string encryptedVote;\n        string signature;\n    }\n\n    // Voter struct used to keep status of each one of them;\n    struct Voter {\n        bool isRegistered;\n        bool hasVoted;\n    }\n\n    // Here are stored all the votes\n    uint private voteCount = 0;\n    mapping(uint => Vote) private votes;\n\n    // Here are stored all the registered voters.\n    mapping(bytes32 => Voter) private voters;\n\n    // Status of the current voting session\n    bool public isVoteStarted;\n    bool public isVoteFinished;\n\n    // The admin address: the first address from Ganache workspace\n    // To test modifiers, change this to anything you want (ex: 0xcafebabef00ddeadbeefcafebabef00ddeadbeef)\n    address private authorizedAddress = 0x17987d50dD4439Ed4Cf3975Ef6752D1C7a076cA3;\n\n    // Modifiers. The names suggest what they do\n    modifier onlyAuthorized() {\n        require(msg.sender == authorizedAddress, \"Unauthorized caller\");\n        _;\n    }\n\n    modifier onlyAfterVoteFinished() {\n        require(isVoteFinished == true, \"Voting session not finished yet\");\n        _;\n    }\n\n    modifier onlyAfterVoteStartedAndNotFinished() {\n        require(isVoteFinished == false && isVoteStarted == true, \"Voting session not in progress\");\n        _;\n    }\n\n    modifier onlyBeforeVoteStarted() {\n        require(isVoteFinished == false && isVoteStarted == false, \"Voting session has started already\");\n        _;\n    }\n\n    // Creating the voting session\n    constructor() {\n        isVoteFinished = false;\n        isVoteStarted = false;\n    }\n\n    // The events are used for logging\n    event VoteStartedOrFinished (\n        string message\n    );\n\n    event VoteCasted (\n        string publicKey,\n        string encryptedVote,\n        string signature\n    );\n\n    event VoterAdded (\n        bytes32 hashedPublicKey,\n        bool isRegistered,\n        bool hasVoted\n    );\n\n    // One-way modifying function in order to start the voting session \n    function startVote() public onlyAuthorized {\n        isVoteStarted = true;\n        emit VoteStartedOrFinished(\"Vote has started\");\n    }\n\n    // One-way modifying function in order to end the voting session \n    function endVote() public onlyAuthorized {\n        isVoteFinished = true;\n        emit VoteStartedOrFinished(\"Vote has finished\");\n    }\n\n    // Add a voter to the voter list by hashing his/her public key.\n    function addVoter(string memory _publicKey) public onlyAuthorized onlyBeforeVoteStarted {\n        bytes32 hashedPublicKey = keccak256(abi.encodePacked(_publicKey));\n        Voter memory currentVoter = getVoter(hashedPublicKey);\n        require(currentVoter.isRegistered == false, \"Voter already registered\");\n\n        voters[hashedPublicKey] = Voter(true, false);\n        emit VoterAdded(hashedPublicKey, true, false);\n    }\n\n    // Get details of a voter, be him/her registered or not\n    function getVoter(bytes32 hashedPublicKey) private view returns (Voter memory){\n        return voters[hashedPublicKey];\n    }\n\n    // Add a vote to the votes mapping\n    function addVote(\n        string memory _publicKey, \n        string memory _encryptedVote, \n        string memory _signature) public onlyAfterVoteStartedAndNotFinished \n    {\n        bytes32 hashedPublicKey = keccak256(abi.encodePacked(_publicKey));\n        Voter memory currentVoter = getVoter(hashedPublicKey);\n        require(currentVoter.hasVoted == false && currentVoter.isRegistered == true, \"Unauthorized voter\");\n\n        voteCount++;\n        votes[voteCount] = Vote(_publicKey, _encryptedVote, _signature);\n        voters[hashedPublicKey].hasVoted = true;\n        emit VoteCasted(_publicKey, _encryptedVote, _signature);\n    }\n\n    // Return all the votes casted in this session\n    function getAllVotes() public view onlyAfterVoteFinished returns (Vote[] memory) {\n        Vote[] memory returnedVotes = new Vote[](voteCount);\n        for (uint i = 0; i < voteCount; i++) {\n            returnedVotes[i] = votes[i+1];\n        }\n        return returnedVotes;\n    }\n}",
  "sourcePath": "/Users/gpoalelungi/facultate/licenta/blockchain_eVoting/smart-contract/src/contracts/Election.sol",
  "compiler": {
    "name": "solc",
    "version": "0.8.19+commit.7dd6d404.Emscripten.clang"
  },
  "schemaVersion": "3.4.13",
  "updatedAt": "2023-04-23T13:29:52.118Z",
  "networkType": "ethereum",
  "devdoc": {
    "kind": "dev",
    "methods": {},
    "version": 1
  },
  "userdoc": {
    "kind": "user",
    "methods": {},
    "version": 1
  }
}